{
  "contractName": "Sample",
  "abi": [
    {
      "constant": true,
      "inputs": [
        {
          "name": "",
          "type": "uint256"
        }
      ],
      "name": "tasks",
      "outputs": [
        {
          "name": "owner",
          "type": "address"
        },
        {
          "name": "id",
          "type": "uint256"
        },
        {
          "name": "content",
          "type": "string"
        },
        {
          "name": "imgHash",
          "type": "string"
        }
      ],
      "payable": false,
      "stateMutability": "view",
      "type": "function",
      "signature": "0x8d977672"
    },
    {
      "constant": true,
      "inputs": [],
      "name": "taskCount",
      "outputs": [
        {
          "name": "",
          "type": "uint256"
        }
      ],
      "payable": false,
      "stateMutability": "view",
      "type": "function",
      "signature": "0xb6cb58a5"
    },
    {
      "anonymous": false,
      "inputs": [
        {
          "indexed": false,
          "name": "owner",
          "type": "address"
        },
        {
          "indexed": false,
          "name": "id",
          "type": "uint256"
        },
        {
          "indexed": false,
          "name": "content",
          "type": "string"
        },
        {
          "indexed": false,
          "name": "imgHash",
          "type": "string"
        }
      ],
      "name": "TaskCreated",
      "type": "event",
      "signature": "0x83348630f55265468244ba33169a527bb52653f19f0a29750cdd794aa6840624"
    },
    {
      "constant": false,
      "inputs": [
        {
          "name": "_content",
          "type": "string"
        },
        {
          "name": "_img",
          "type": "string"
        }
      ],
      "name": "createTask",
      "outputs": [],
      "payable": false,
      "stateMutability": "nonpayable",
      "type": "function",
      "signature": "0x292a4585"
    }
  ],
  "bytecode": "0x60806040526000805534801561001457600080fd5b5061070e806100246000396000f3fe6080604052600436106100565763ffffffff7c0100000000000000000000000000000000000000000000000000000000600035041663292a4585811461005b5780638d97767214610197578063b6cb58a5146102d9575b600080fd5b34801561006757600080fd5b506101956004803603604081101561007e57600080fd5b81019060208101813564010000000081111561009957600080fd5b8201836020820111156100ab57600080fd5b803590602001918460018302840111640100000000831117156100cd57600080fd5b91908080601f016020809104026020016040519081016040528093929190818152602001838380828437600092019190915250929594936020810193503591505064010000000081111561012057600080fd5b82018360208201111561013257600080fd5b8035906020019184600183028401116401000000008311171561015457600080fd5b91908080601f016020809104026020016040519081016040528093929190818152602001838380828437600092019190915250929550610300945050505050565b005b3480156101a357600080fd5b506101c1600480360360208110156101ba57600080fd5b50356104f1565b604051808573ffffffffffffffffffffffffffffffffffffffff1673ffffffffffffffffffffffffffffffffffffffff1681526020018481526020018060200180602001838103835285818151815260200191508051906020019080838360005b8381101561023a578181015183820152602001610222565b50505050905090810190601f1680156102675780820380516001836020036101000a031916815260200191505b50838103825284518152845160209182019186019080838360005b8381101561029a578181015183820152602001610282565b50505050905090810190601f1680156102c75780820380516001836020036101000a031916815260200191505b50965050505050505060405180910390f35b3480156102e557600080fd5b506102ee610641565b60408051918252519081900360200190f35b60008054600190810180835560408051608081018252338152602080820184815282840189815260608401899052948752858252929095208151815473ffffffffffffffffffffffffffffffffffffffff191673ffffffffffffffffffffffffffffffffffffffff909116178155915193820193909355905180519293919261038f9260028501920190610647565b50606082015180516103ab916003840191602090910190610647565b509050507f83348630f55265468244ba33169a527bb52653f19f0a29750cdd794aa6840624336000548484604051808573ffffffffffffffffffffffffffffffffffffffff1673ffffffffffffffffffffffffffffffffffffffff1681526020018481526020018060200180602001838103835285818151815260200191508051906020019080838360005b8381101561044f578181015183820152602001610437565b50505050905090810190601f16801561047c5780820380516001836020036101000a031916815260200191505b50838103825284518152845160209182019186019080838360005b838110156104af578181015183820152602001610497565b50505050905090810190601f1680156104dc5780820380516001836020036101000a031916815260200191505b50965050505050505060405180910390a15050565b6001602081815260009283526040928390208054818401546002808401805488516101009882161598909802600019011691909104601f810186900486028701860190975286865273ffffffffffffffffffffffffffffffffffffffff90921695909492938301828280156105a75780601f1061057c576101008083540402835291602001916105a7565b820191906000526020600020905b81548152906001019060200180831161058a57829003601f168201915b5050505060038301805460408051602060026001851615610100026000190190941693909304601f81018490048402820184019092528181529495949350908301828280156106375780601f1061060c57610100808354040283529160200191610637565b820191906000526020600020905b81548152906001019060200180831161061a57829003601f168201915b5050505050905084565b60005481565b828054600181600116156101000203166002900490600052602060002090601f016020900481019282601f1061068857805160ff19168380011785556106b5565b828001600101855582156106b5579182015b828111156106b557825182559160200191906001019061069a565b506106c19291506106c5565b5090565b6106df91905b808211156106c157600081556001016106cb565b9056fea165627a7a72305820d61f87fe741fbdaa8487c72009b7e1e9a8d8fc8522c3ae9d6fe0591ad1998dd90029",
  "source": "// SPDX-License-Identifier: MIT\r\npragma solidity >=0.4.22 <0.9.0;\r\n\r\ncontract Sample{\r\n    uint public taskCount = 0;\r\n\r\n    struct Task {\r\n        address owner;\r\n        uint id;\r\n        string content;\r\n        string imgHash;\r\n    }\r\n\r\n    // constructor() public {\r\n    //     createTask(\"Solidity Programming\",\"image\");\r\n    // }\r\n\r\n    mapping(uint => Task) public tasks;\r\n\r\n    event TaskCreated(\r\n        address owner,\r\n        uint id,\r\n        string content,\r\n        string imgHash\r\n    );\r\n\r\n\r\n    function createTask(string memory _content,string memory _img) public {\r\n        taskCount++;\r\n        tasks[taskCount] = Task(msg.sender,taskCount,_content,_img);\r\n        emit TaskCreated(msg.sender,taskCount,_content,_img);\r\n    }\r\n\r\n}",
  "sourcePath": "C:/Users/DR/Documents/MySelf/ImagineHack/Blockchain/client/contracts/Sample.sol",
  "compiler": {
    "name": "solc",
    "version": "0.5.0+commit.1d4f565a.Emscripten.clang"
  },
  "schemaVersion": "3.0.1",
  "updatedAt": "2021-10-27T17:45:08.909Z",
  "devdoc": {
    "methods": {}
  },
  "userdoc": {
    "methods": {}
  }
}